:020000040000FA
:2000000000000420291D0000511D0000531D0000551D0000571D0000591D0000000000003C
:200020000000000000000000000000005B1D00005D1D0000000000005F1D0000611D0000D4
:20004000293A0000B536000041C40000D1460000631D0000631D0000913D0000631D0000E8
:20006000BD8F0000631D0000631D000081400000631D0000853F0000631D0000631D00002F
:20008000A5470000631D0000631D0000631D0000631D0000631D0000631D0000631D0000F4
:2000A000631D0000631D0000631D0000631D0000631D0000631D0000000000000000000040
:2000C000631D0000631D0000631D0000631D0000631D0000631D0000631D0000631D000020
:2000E000631D0000631D0000631D00000000000000000000631D000000000000631D000080
:200100000000000000000000000000000000000000000000000000000000000000000000DF
:200120000000000000000000000000000000000000000000000000000000000000000000BF
:2001400000000000000000000000000000000000000000000000000000000000000000009F
:2001600000000000000000000000000000000000000000000000000000000000000000007F
:2001800000000000000000000000000000000000000000000000000000000000000000005F
:2001A00000000000000000000000000000000000000000000000000000000000000000003F
:2001C00000000000000000000000000000000000000000000000000000000000000000001F
:2001E0000000000000000000000000000000000000000000000000000000000000000000FF
:2002000001F0FF01102A2BDB10F0070F08D010F8013B013A8B422DD010F0070F42B3F6D1A4
:20022000F0B441EA012141EA014122F007047FF000070023F0E80256083C85EA010586EA51
:20024000010685FA47F5A3FA87F586FA47F6A5FA87F68EB9EED1F0BC01F0FF0102F007024C
:2002600032B110F8013B013A83EA010313B1F8D10020704701387047002D06BF35460338AF
:20028000073815F0010F07D1013015F4807F02BF013015F4C03F0130F0BC0138704700BF73
:2002A00010B5054C237833B9044B13B10448AFF300800123237010BD4E6A002000000000C4
:2002C000081A010008B5034B1BB103490348AFF3008008BD00000000D0030020081A010090
:2002E000A3F5803A704700BF174B002B08BF134B9D46FFF7F5FF00218B460F461348144AB7
:20030000121A0FF0AFF80E4B002B00D098470D4B002B00D098470020002104000D000D48FF
:20032000002802D00C48AFF3008000F02BF82000290000F017FA00F011F800BF0000080030
:20034000000000000000000000000420D0030020846A0020000000000000000008B5074B69
:20036000044613B10021AFF30080054B1868836A03B19847204600F029F800BF00000000A6
:20038000E8F7000070B50D4D0D4C641BA4100026A64209D10B4D0C4C0FF014FA641BA4109B
:2003A0000026A64205D170BD55F8043B98470136EEE755F8043B98470136F2E7C80300204F
:2003C000C8030020C8030020CC030020FEE700BF00B585B00346002101AA44F20100CDE9C8
:2003E0000111039300F004F805B05DF804FB00BF72B6094BD3F8F030DB0700D500BEBFF313
:200400004F8F0549054BCA6802F4E0621343CB60BFF34F8F00BFFDE700ED00E00400FA0572
:2004200072B6024A1368013313607047E8030020034A1368013B136003B962B6704700BFA3
:20044000E803002010B50446006830B1002104F0D3FC54F8040F0028F8D110BD10B590F8EB
:200460004C30094A0446013384F84C3080212346203000F0B1FD054B22461978BDE8104001
:20048000002004F07BBD00BF5D0400004F6A00202DE9F041038804463BB1B3F5867F0AD187
:2004A00082290DD00120BDE8F0814FF4867323800120BDE8F081002303800320BDE8F08188
:2004C00001F0E8FCBFF35F8F1649174B0E6800220A601F781A70FFB2BFF35F8F134D01F021
:2004E000DDFC28680028E0D0DFF8448003E055F8040F0028D9D090F8463026FA03F3DA0717
:20050000F5D590F8453047FA03F3DB07EFD500F0C5FD0028EBD02B6842461846022100F016
:200520005BFDE4E7FC030020526A0020A40100206905000010B4094A094C136819431160B6
:200540002178012202FA00F040EA0103DBB2237004485DF8044B04F043BD00BFFC030020E3
:20056000526A0020B801002070B5044600F096FD00B970BD04F12006304600F08FFD94F855
:200580004610054694F8450001F042FC48B994F8443063B9002DECD1304600F065FD0D4B93
:2005A00011E00128F6D194F84430002BF2D1002DDFD000252346084A84F84C507E21304683
:2005C00000F00AFD054B197822462846BDE8704004F0D4BC516A00205D040000506A00207E
:2005E000F8B504F001FC304B304C187004F0FCFB2F4B304F187004F0F7FB2F4A2F4B107019
:2006000022687B600025FF213972FD60002A42D02B4E09E091F84600F9683A72834054F89F
:20062000042F0B43FB60B2B392F8463092F84510926C03F01F0343EA41131F2BC6BF03F044
:200640001F0331464FF0A04103F5E07342F08C0241F82350236893F8461093F8450001F0FD
:2006600093FB226892F8463092F8450003F01F0343EA4010012103F0E1FA2168387A91F84D
:20068000452082424FF00103C4D0FF28C2D054F8042F002AC8D10B48002104F0ADFBBDE8AA
:2006A000F840044801F0C8BB506A0020A4010020516A0020EC0300204F6A002035050000A6
:2006C00000030050B8010020042800D0704708B5054A13680133136000F0B8FF00B908BDE8
:2006E000BDE8084000F092BF0004002000B5134B83B000221A6003F041F8C0B9002003F00E
:2007000059F80F4B0F4A93E803000090ADF804100D48694603F04AFC60B901210A4803F051
:2007200099FC094803F08AFC03B05DF804FBFFF74FFEE3E7FFF74CFEEFE700BF000400204D
:200740003CF80000C906000044F80000014B1868704700BF00040020014B1868C0097047A8
:200760000004002038B5664C04F01CFAFFF7BEFF08F036FC04F072FB6248002104F03CFB78
:2007800000F016FC0DF076FD00F08CFE0AF082F904F010FA04F046FC02F04AF902F05AF94A
:2007A0002368022B3ADC584A584B1168526819605A605748002104F01FFB4FF0FF300CF088
:2007C000E5F82368022B054611DC04F01BFA5148FFF738FE0DF076FD04F05CFB0446E4B2E3
:2007E0000DF078FD002CF7D104F01AFAF4E74A4A4A494B4804F030FA4A4804F02DFA2368A0
:20080000022BE2DD05B10235284601F083FD2368022BDADD0A2004F0F1FBD6E73E4A3F49DA
:200820003F4804F019FA404804F0EEFB2368022BB9DD394A39493A4804F00EFA3B4B3C48EA
:20084000196804F009FA2368022BACDD324A3349334804F001FA374B3748196804F0FCF912
:200860002368022B9FDD2C4A2C492D4804F0F4F9324B3348196804F0EFF92368022B92DD87
:20088000254A2649264804F0E7F92E4841F2373104F0E2F92368022B85DD1F4A1F49204805
:2008A00004F0DAF928481A2104F0D6F92368022B7FF779AF184A1949194804F0CDF9234B60
:2008C0002348198804F0C8F92368022B7FF76BAF114A1249124804F0BFF91E4804F0BCF944
:2008E0002368022B7FF75FAF074801F023FD2368022B7FF758AF0A2004F080FB53E700BF95
:200900001C020020FC010020201100208062002030030020B0FE00004CF8000054F8000098
:200920005CF800001CF900006CF800009811010090F8000018120100A0F8000048F90000B4
:20094000ACF80000B8F80000D4F800003C6A0020F4F8000004F900002DE9F0470D468B6835
:2009600092F82C900646506B1446D3E9007801F0A9FC686804F092FBA9681D4801F094FDBD
:200980001C48294601F090FD606B01F04DFCD8B10023A38504F0B0FB174BA3FB0023C11A90
:2009A00003EB51039B08C3EBC303C11A134A234604F10C0000F010FB4B4632464146384633
:2009C000BDE8F04701F03ABD04F10C0000F04CFB21460B4801F076FC21460A4801F064FDF3
:2009E0004B46324641463846BDE8F04701F026BDC8010020E001002025499224090A000018
:200A0000A4050020D401002020B32DE9F047044684B0406B01F008FC0546C0B1406804F082
:200A200053FB76490D2004F0A1F80121082004F08FF800F0BDF900280DDAAB683BB1052051
:200A40002246294604B0BDE8F047FFF785BF04B0BDE8F087704704F017F8694F90F80280A9
:200A60007B68019304F010F8064604F017F8019B01463046984704F08DF8BB6901930646FF
:200A8000984700282DD1002E61D1D7F81C90C84738BBBB681E4604F001F8B04700286BD0A6
:200AA00002281ED0AB68002BD1D00420C8E708F07DFA6FF028031E1A03E008F077FAC642E7
:200AC00002D5C8470028F8D0C84700286ED03B69032103A89847032803D19DF80E3043451F
:200AE0003BD0AA68002AB2D094F82D104B1CDBB2052B84F82D301AD8127A94F82C0090425F
:200B000021D2012B88BF1F2671D904F0F5FAB0FBF6F101FB160104F10C003A4A234600F07A
:200B20005BFA686804B0BDE8F04704F0B1BA94F82C300133DBB2002184F82D1084F82C3046
:200B4000127A9A4216D82246294601207AE7BE6803F0A4FFB0470028A2D1AB68002B3FF427
:200B600076AF94F82C300020013384F82D0084F82C3065E70726C8E708F018FA6FF0180AE0
:200B8000AAEB000A04E008F011FA1AEB000F02D5C8470028F7D0019B9847002887D1C847DC
:200BA000002884D17B699847002880D0A96800293FF44DAF94F82C3001330022DBB284F8CD
:200BC0002D2084F82C300A7A9A4203D822462946022037E704F090FA0B4BA3FB0023C21A2D
:200BE00003EB52039B08C3EBC303C11A93E70B1D0126DBB206FA03F35E1E86E7201100203A
:200C0000D0FE0000090A0000254992242DE9F04106460E200F4603F0B5FF554B1A78054695
:200C2000002A6FD0534C2178002940D04A1CD2B289B20720227003F08BFF01210C2003F03E
:200C400087FF4D4801F0F0FA044620B918E001F05DFB0446A0B12946201D01F0D9FA0346E6
:200C60002046002BF3D0606B01F046FB1F2821DD394630460123BDE8F041062201F0DEBB3D
:200C80003E4801F0F5FB04460028F1D02946201D01F0B8FA002304F13000C4E90C30A38512
:200CA00001F0BEFA3448214601F0C0FADBE701210222BEE7324801F0DBFB054688B3314810
:200CC00001F0D6FBA86040B304F0C0F9686000B30620D5F8088003F043FFC8E9006710F067
:200CE000FF000ABF082388F8080088F80830606B294601F09BFA606B01F096FA85421ED000
:200D0000BDE8F08101221A7004F0F6F9194CC1B28AE7A9681B4801F0C7FB1948294601F0FC
:200D2000C3FB606B01F0E8FA0028A1D12146124801F0C8FA2146114801F0B6FB98E794F8DC
:200D40002D30012B0ED91F2504F0D6F92346B0FBF5F10D4A01FB150104F10C00BDE8F041E2
:200D600000F03AB90333DBB201259D40013DEBE7536A0020546A0020A4050020D401002041
:200D8000E0010020C8010020090A000008B5054801F05CFB044801F059FBBDE8084003483B
:200DA00001F054BBE0010020C8010020D401002010B501210C2003F0CBFE024BBDE8104043
:200DC0005B681847E0FC0000014B9B68184700BFE0FC0000014B1B6A184700BFD0FE00000F
:200DE000014B5B6A184700BFD0FE000010B50D4B82B01B6898470C4B04469B6A01A91820BD
:200E0000984701280BD0002C019BB8BF1524802BD4BFC4EB0300C4F1800002B010BD0020B3
:200E200002B010BDE0FC0000D0FE0000FFF7EEBE30B50C4C83B0A56A69461820A84738B9A1
:200E400001A90420A84728B1FFF7A0FF236A984703B030BD0199E36A21F0020101910420AA
:200E60009847F1E7D0FE000030B583B003F010FE032801D103B030BDFFF7A6FF0028F9DBA0
:200E80000E2003F07FFE224901F0C2F908B30D2003F078FE1E4901F0BBF904460028E9D114
:200EA00001F072FA0546C8B1082003F059FE0028E0D002238DF804308DF8054003F0E4FD4B
:200EC000144B8278DB688DF80620032101A89847D0E703F05FFE0028CCD0D8E701F07AFA30
:200EE000082003F03DFE18B90B4B9B689847C1E702238DF804308DF8055003F0C5FD054B2E
:200F00008278DB688DF80620032101A89847EBE720110020D0FE000018120100F0B50388F1
:200F200083B0054633B14A2B18D188291BD0012003B0F0BD1B4801F077F9044630B1A168DC
:200F4000201D00F069FB2468002CF8D1164B01221A704A2301202B8003B0F0BD0023038032
:200F6000032003B0F0BD0F48019201F05DF904460028EED0019A031D9A4205D02468231D55
:200F8000002CE6D09A42F9D10648084E214601F099F9D4E90523376832600BB1E069984741
:200FA0003760D6E7680E0020556A0020B018002010B5064B064800241C7001F031F92146EA
:200FC0000448BDE8104003F017BF00BF556A0020680E0020EC01002070B582610D4A0E4D0C
:200FE000044610782E68E361666130B9A1600B482146BDE8704001F019B9201D084B2B60A7
:2010000000F00AFB2E6021460448BDE8704001F00DB900BF556A0020B0180020680E002072
:20102000EC01002070B50C4B1B7804462BB921460A48BDE8704001F0F9B8094D094B2E6876
:201040002B60043000F0F2FA2E6021460348BDE8704001F0EBB800BF556A0020680E002098
:20106000B0180020EC01002010B50A4B1B7804463BB9C0E9033321460748BDE8104001F015
:2010800021B9043000F0EAFA21460348BDE8104001F018B9556A0020680E002038B50C4B4C
:2010A0001D7804466DB90B4801F0BEF838B1A04202D10BE0844209D000680028FAD101208D
:2010C00038BDBDE83840043000F0BABA002038BD556A0020680E002010B50446C0B20BF060
:2010E0006DF9204610BD00BF70B570B10E46451E002404E0A64206D00BF060F9013415F83F
:20110000010F0028F6D1204670BD0446FBE700BF014B01221A707047576A0020704700BF4B
:20112000014B1878704700BF576A00202DE9F041184B194C1B78194EDFF86C80184F7422B3
:2011400002FB0344014694F86620327094F8673094F86520737082B0B01C0EF09BF994F81D
:201160006550104B04220235C3F80825EDB2002400942B4632465021384688F8004003F038
:2011800013FA0028F4D1074B0422C3F80C2502B0BDE8F081746A0020009009006C0E0020F8
:2011A00078FA000000030050566A00202DE9F047DFF874A0DFF874909AF80030174A184DEF
:2011C000184C7421002601FB039384B0167093F86520314680460EF045F98DF80D608DF8A4
:2011E0000C6001270097022303AA502120462E7003F0DAF90028F5D19AF8003028707422D9
:2012000002FB0393502193F865304246204603F01FFA0028E5D104B0BDE8F087576A002021
:20122000566A002078FA0000746A00200090090030B5564A5649574885B003F00DFD564832
:2012400003F0E2FE4FF08043D3F80034D8073CD44FF08043D3F80034990744D44FF0804310
:20126000D3F800345A074CD44FF08043D3F800341B0754D403210422CDE9001200234FF02F
:20128000CC710222CDE9021244481A46694602F0DFFA00284CD14248424C03F075F90123DB
:2012A0000325184603F5E07100FA03F20133092B44F82150C4F80C25F4D13B4B1B78022B63
:2012C00039D0012B43D005B030BD38492F4A314803F0C2FC364803F097FE4FF08043D3F82D
:2012E00000349907BAD5294A32492A4803F0B4FC314803F089FE4FF08043D3F800345A0733
:20130000B2D5224A2B49234803F0A6FC2B4803F07BFE4FF08043D3F800341B07AAD51B4A80
:2013200024491C4803F098FC254803F06DFEA1E7FFF74EF8AFE7154A1549164803F08CFC9A
:20134000204803F061FEC4F8085705B030BD0F4A0F49104803F080FC1B4803F055FE1B4B8F
:201360001B4A1B68ADF800301C0C694622208DF8024002F0D3FB28B90121222002F05EFC7F
:2013800005B030BDFFF724F8F6E700BF74F9000054F800005CF8000080F9000074FA000009
:2013A00078FA0000000300506F6A002098F90000A0F90000C4F90000C8F90000ECF90000E2
:2013C00010FA000034FA000048FA00005CFA00001111000070B5104D2B88C3B10F4E2C46A3
:2013E00002E034F80A2F32B1A11C304600F010FF0028F6D022880A4901230A8035F80A2F92
:2014000019460133002AF9D1064B196070BD0449044A0B80136070BD84FA000020110020B9
:201420003C6A0020700F002010B50C4C82B0014668460BF0D7FC23881BB90BE034F80A3F56
:2014400043B1A11C684600F0E3FE0028F6D0208802B010BD002002B010BD00BF84FA00006B
:2014600030B5044683B099B10D4A13881BB90FE032F80A3F63B19942FAD16D46911C284610
:2014800000F0C0FE294620460BF0A2FC03B030BD6D46294620460BF09BFC03B030BD00BF17
:2014A00084FA0000704700BF10B5FFF74FF90B4B1A68D2E9003192680B44191A52B1D2E937
:2014C000003423441B1A9268994228BF1946002AF5D14318024A136010BD00BF780F0020E4
:2014E000740F00202DE9F843038805465BB3592B2CD187292FD0822920D12C4FDFF8B480C2
:201500003C684FF00009CCB1002603E0A3682646A3B11C4620460AF043FF0028F6D0E06854
:201520002246882103F02AFD03464046002B2AD003F056FDA3682646002BEAD159232B80C2
:201540000120BDE8F883194A1360F7E7002303800320BDE8F883154F3968002019B9EDE7E2
:2015600089680120D9B1CB689342F9D000B139608B68002BE2D0D868904207BF9B688B601E
:2015800019469B68F5E7E360A3686EB1B3603B68C4F808902BB1FFF787FF3C68B3E7396067
:2015A000CCE7034A1360C9E73B60F1E7780F0020740F0020FC01002010B50446104803F0D4
:2015C0000FFD1049E3680A684BB142B194420FD0134601E09C420BD09B68002BFAD10A4B04
:2015E000A2601B68E3600C60BDE81040FFF75CBF054B1B68E360BDE81040FFF755BF00BFDD
:20160000FC010020780F0020B0180020014803F0E7BC00BFFC01002010B504460AF0AAFEB2
:201620002046BDE81040FFF7C7BF00BF10B504460AF0A8FE2046BDE81040FFF7BDBF00BFD9
:20164000C068B0FA80F04009704700BF024B1868003818BF01207047780F002010B5124B0C
:2016600019688142044614D00B462BB19A68A24206D01346002BF9D10023C4E9023310BDEF
:20168000A2689A6049B1FFF70FFF0023C4E9023310BD82681A60002AF5D1044B00221A6037
:2016A0000023C4E9023310BD780F0020740F0020014B1888704700BFC403002000283ED08F
:2016C000037A022B30B410D00378022B15D00379B3B10024C37913F0030318BF012301B119
:2016E0000C6002B1136030BC7047C579447A037965B90CB9012BF2D0DBB100231C46EEE786
:20170000447A14F0030418BF0124E3E7C4B1032D37D1032C2ED0022C24D143BB022D2DD013
:201720000123032D24D1A4F10204B4FA84F46409D5E7023C012C8CBF00240124CFE770470A
:201740004BB9022D08BF0123EAD1A4F10304B4FA84F46409C3E7032D01D0022D02D123466B
:201760001C46BCE7002BC8D1022DDAD1EDE701230024B4E7002BC0D10123D4E701231C46EE
:20178000ADE7022DC7D1002BF1D1022C4FF00103DBD11C46A3E700BF30B500230B608B80BB
:2017A000437D0D46D9075CBF01232B70037E012B83B0044623D901AA694604F11000FFF7E1
:2017C0007DFF009B0BB10223EB70019B0BB102236B70E37D03F00303022B03D0032B14BF04
:2017E00000230823AB70637E03F00303022B03D0032B14BF002308232B7103B030BDC37DDB
:201800009A0706D0437E9B0703D0C28B838B9A4202D000232375CEE701230375CBE700BF95
:2018200002280CBF012307230B441A78FF2A184603F1FF3303D18142F7D101207047002080
:20184000704700BF00B583B06946FFF7A5FF9DF800309DF801209DF802009DF803100233F2
:20186000134403449DF804209DF805000B441344184403B05DF804FB4378827890F800C071
:20188000DB00120102F0100203F0080313430CF0070290F803C0134302794FEA4C1C0CF044
:2018A000200C920143EA0C0302F0400213430B704379827990F809C003F00103520043EAAA
:2018C0008C1302F0020290F807C01343027A4FEA8C0000F00C001201034302F030021343BE
:2018E0004B70704730B583B005460C466946FFF753FF214605F11000FFF7BEFF9DF80030E5
:20190000012B04BFAB7EA3709DF801300CBF03220222022B08D1AB8BA354531CA98BDBB25F
:20192000090A0232E154D2B29DF802306BB303F1FF3E1344AE44DBB294460132D2B21EF814
:20194000011904F80C109A42F6D19DF80320022A08D1EA8BE2545A1CE98BD2B2090A023394
:20196000A154DBB29DF8040088B100F1070C1844AC44C0B21A460133DBB21CF801E904F836
:2019800002E09842F6D103B030BD1346DDE7184603B030BD02784378C2F3C00002F0070C5A
:2019A0004870C2F3401081F800C0C870C2F3001C03F00100C2F3801281F802C00A71C3F381
:2019C000400CC3F301124871C3F381009B0981F806C0C8710A724B72704700BF012943DDED
:2019E0002DE9F04186B00F4603A914460546FFF7D1FF0B4603CB9DF811201B882061616133
:201A000023836AB3AE1C03A802AA01A9FFF756FE9DF81380B8F1000F43D0029B002B31D131
:201A2000B8F1020FA38367D0B8F1030F4DD09DF81580B8F1000F2CD0019BBBB9A38BE38335
:201A4000B8F1020F4DD0B8F1030F31D0701B3B1A8742C4E90E6300DA002006B0BDE8F08166
:201A6000AB78A376EE1CCEE700207047727816F8023B03EB0223029A9BB2E383002ADFD123
:201A8000A383DDE7727816F8023B03EB02239BB2C6E71E4904F1080000F0B4FBA4F81E80DD
:201AA000D4E71A49204600F0ADFBA4F81C80BEE706F10800034604F1080213F8011D02F8C3
:201AC000011BB342F9D10646C0E706F108000346621E13F8011D02F8011FB342F9D1064622
:201AE000A5E70A4904F1080000F08CFB7378237216F8023B6372A9E70449204600F082FB43
:201B00007378237016F8023B637090E7ECFC000030B591B002F0A8FF044602F0B9FF6A4667
:201B200001462046FFF75AFF00283ED0044602F081FFD0B39DF810100C2003F009F89DF8CA
:201B40001310082003F004F89DF817308BB1BDF81C50FFF7ADFD854205D0BDF81C204FF6A0
:201B6000FF739A4221D19DF817006946FFF758FEB0B102A90D2002F0F9FF9DF815303BB195
:201B80004FF6FF71072002F0E3FF204611B030BD9DF81A10072002F0DBFF204611B030BDBB
:201BA00069460E2002F0E2FFE3E74FF0FF34ECE7F8B505460C2014460E46A84700232074EE
:201BC000A37496B3E37463750920A847002701232376A07567740720A847A076FFF768FD03
:201BE000E0830A20A84701280CBF3B4603236376FFF75EFDA0830B20A84701281AD066B935
:201C00000323E375637E022B0CD0E37DA3F10203B3FA83F35B092375F8BD0223E375637E31
:201C2000022BF2D101232375F8BD0820A8476675E074C9E7E775E5E730B591B00446FFF7BF
:201C400037FD4FF6FF7398425DD04022002168460DF008FC2D4B1A7832B36CBB02F09AFFBF
:201C600001466A462A48C9B2FFF7A2FF02F092FF00283DD04FF6FF73ADF800300D2002F086
:201C800081FF014602A800F0BDFA02F0EDFE0E9002F0FEFE034668460F93FFF7D3FD054619
:201CA000D4B9284611B030BD01221A7003F024FA184B1870002CD1D0072002F051FF002874
:201CC000CCD1144D2978D9B189B2072002F040FF2B7801332B70C1E702F07CFE98B102F087
:201CE000D3FE01466846FFF7FDFD284611B030BD0E2002F047FF0146684600F083FABDE7A6
:201D000001212970E1E74FF0FF35CAE7586A0020614B0000596A00200120FFF78DBF00BF89
:201D20000020FFF789BF00BF0649074A074B9B1A03DD043BC858D050FBDC09F02BFCFEF794
:201D4000D3FA0000141A010000000020D0030020FEE7FEE7FEE7FEE7FEE7FEE7FEE7FEE74C
:201D6000FEE7FEE700F01F0301219940C0F3471000F068B808B501F0C7FE00B108BDBDE8E4
:201D8000084001F089BE00BF30B583B00223002501F01F018DF8063012F00C03ADF80450CC
:201DA000144641EA401508D0042B26D0082B28D00C2B04BF03238DF8043014F0030306D068
:201DC000022B16D0012B04BF03238DF805300F4A01A9284601F0A2FE230604D4284601F0BF
:201DE0009DFF03B030BD0121284601F027FF03B030BD01238DF80530E9E701238DF80430D5
:201E0000DBE702238DF80430D7E700BF651D000001F01F0141EA40101F28CABF054B4FF038
:201E2000A04300F01F00D3F8101521FA00F000F001007047000300500146014800F0F6B98B
:201E40007C0F002070B505460C480E4600F0ECF990B1044601E0246874B1237AAB42FAD178
:201E6000E36816EA0301F6D063682846002BF2D098472468002CF0D170BD00BF7C0F002038
:201E800008B5034800F0CCF9BDE80840FFF772BF7C0F0020EFF3108072B6704780F310886A
:201EA000704700BF10B51B4A1B4C00234FF0010C40FA03F1C90713D59178B9B1117892F840
:201EC00001E001F01F0141EA4E111F29C6BF01F01F01A6464FF0A04E0CFA01F1CEF80C15B0
:201EE0000133042B02F10302E2D110BD117892F801E001F01F0141EA4E111F29C6BF01F0BA
:201F00001F01A6464FF0A04E0CFA01F1CEF80815E6E700BF1CF800000003005010B51B4A90
:201F20001B4C00234FF0010C40FA03F1C90713D59178B9B1117892F801E001F01F0141EA42
:201F40004E111F29C6BF01F01F01A6464FF0A04E0CFA01F1CEF808150133042B02F10302F5
:201F6000E2D110BD117892F801E001F01F0141EA4E111F29C6BF01F01F01A6464FF0A04E5B
:201F80000CFA01F1CEF80C15E6E700BF1CF80000000300500F4A10B40F4C02F10C0C0320C9
:201FA0001378517803F01F0343EA41131F2BC6BF03F01F0321464FF0A04103F5E07303324C
:201FC000944541F82300EBD15DF8044B0F20FFF7A5BF00BF1CF800000003005010B50948A7
:201FE000FFF720F8084800F0AFFB48B1064C037A5B0801460372204600F06EFB0028F6D154
:2020000010BD00BF001100200C0200200146014800F058BC0C02002080B110B50446FEF7DE
:2020200095FB2368C01AB0F5963F05D2207A032894BF0020012010BD002010BD0020704770
:2020400070B50546144689B1022907D006290CD129462B48BDE8704000F034BC2848294678
:2020600000F030FC0646002832D170BD2448294600F028FC0646002835D0FEF767FB337A34
:2020800030602344102BA8BF10233372FEF75EFB3368C01AE401B0F5963FA4B208D2337AD0
:2020A000042BB38834BF19220A222BB9B48070BDB3881922002BF9D0C2F16400114904FB3D
:2020C00002F203FB0022A1FB02325209B28070BDFEF73CFB337A30602344102BA8BF1023BD
:2020E00033720C34D2E7334605480822294600F057FB06460028B8D047F6FF73C380BCE710
:202100000C0200201F85EB5138B50546042002F027FD29460446244824B200F0D3FB68B36B
:20212000B0F9063047F6FF72934232D004EB840252001E4C5A2113FB012384FB0324DB17C5
:20214000C3EB6414838824B2C48003B138BD6FF03B039C42A8BF1C466FF058039C42B8BF38
:202160001C465A3424B24FF47063B3FBF4F4B4F5C07F28BF4FF4C074848038BD034608223B
:202180000948294600F00CFB0028DFD047F6FF73C3808388C480002BD8D147F6FF739C420F
:2021A000D5D14FF48074E7E70C0200201F85EB5138B5094800F0C8FA60B1074D0446214660
:2021C000284600F09BFB2146284600F085FA04460028F4D138BD00BF0C02002010B50021C8
:2021E000054800F057FABDE81040044A044800234FF4E131FEF7F0BE0C020020DD1F00007D
:20220000001100200B684A6842600360704700BF08B508220DF02EF9B0FA80F0400908BDBA
:2022200000230360704700BF006870470368DBB110B4002400E0134699420FD01A681C46CD
:20224000002AF8D100230B600368CBB11A461B68002BFBD111605DF8044B70470A686CB1E1
:20226000226000221A60EDE700230B6003684BB11A461B68002BFBD1116070470260F0E73C
:202280000160E8E70160704730B405684DB12B46002400E01346994207D01A681C46002A19
:2022A000F8D10D6030BC016070470A683CB1226000221A6005680D6030BC01607047026027
:2022C000F6E700BF03689BB110B4002400E0134699421A6805D01C46002AF8D15DF8044B5F
:2022E000704734B1226000221A605DF8044B704770470260F7E700BF03682BB100201B6829
:202300000130002BFBD170471846704700B10068704700BF00B58BB00246282168460BF010
:202320008FFF6946024802F097FC0BB05DF804FBF4FC000008B3F8B50025114F0446012634
:2023400065B1EB070FD52178384602F085FC082E12D0013501360134002DF2D12178384646
:2023600002F07AFCF5E72E2002F048FE2178384602F072FC082EECD1F8BD024802F06CBC10
:2023800008FD0000F8FC0000F8B5FEF7DFF9104E0746344600250D2002F0F4FB2146FFF715
:2023A00037FF103420B90135102DF4D10020F8BD072006EB051502F0D3FB2B7B8342F5D19A
:2023C000A868381AB0F5206F8CBF00200120F8BD2811002070B5184E002435460D2002F084
:2023E000D1FB2946FFF714FF103510BB0134102CF4D10F2406EB041C64465CF8100DDCF820
:202400000410DCF80820DCF80C3066450FC4F3D1072002F0A5FB3073FEF798F903460D2002
:20242000B36002F0AFFBBDE8704001460248FFF7E9BE002CDED1EBE7281100208C4611463B
:202440001A46034608B160461847704710B504464288406800210DF005F823886288A06825
:2024600003FB02F2BDE8104000210CF0FBBF00BF30B44588ADB14368002202E00132AA4202
:202480000CD0194601330C78002CF7D101230B700588806802FB050030BC7047002030BC90
:2024A00070472846F8E700BF10B4448882685CB18A420ED0B0F800C0002301E0914209D010
:2024C0000133A3426244F9D14FF0FF305DF8044B704700234268D15C0029F5D00020D0547E
:2024E0005DF8044B704700BF83688B4208D84288008800FB023081422CBF00200120704705
:2025000000207047418849B143680020194413F8012B02B901308B42F9D170470846704783
:2025200038B5104D03461048002B18BF1D46FFF77BFE60B10446211D2846FFF769FE03462F
:2025400020463BB9FFF7E2FE04460028F3D14FF0FF3038BD054A064B9068201A801003FB52
:2025600000F038BDECFC00006812002024020020ABAAAAAA2DE9F0411748FFF755FE804650
:2025800028B3164F164E174D00240AE0204608F1040105F053FB04464046FFF7B7FE80463D
:2025A00090B1B368A8EB03039B1005FB03F3FB5C002BF1D1002CE9D14046FFF7A7FE08F141
:2025C000040480460028ECD12046BDE8F08104462046BDE8F08100BF681200204812002033
:2025E00024020020ABAAAAAA2DE9F84F234CDFF8A0B0DFF88CA0DFF88C900546884604F1F5
:20260000200754F8043FBBB19E68AEB1A5B1DAF80820AA1A91100C3209FB01F10CD05868AE
:20262000DA6800FB012038B11BF801201B6842FA03F3DB0700D5B047BC42E2D1D5B1104B2A
:20264000104A9B68EB1A9B1002FB03F30E490F480022CA5429460BF80320FFF733FEB8F127
:20266000000F01D1BDE8F88F29460548BDE8F84FFFF71ABF4FF0FF33E8E700BF2412002081
:2026800024020020ABAAAAAA48120020681200201014002038B10368072B04D80C4A52F8F1
:2026A0002330984211D00B4A1368072B0BD810B48160074903605C1C41F823001460012066
:2026C0005DF8044B704700207047816001207047281200200C140020F8B5184F184C194D97
:2026E000064608462EB358B1F3687268C11A91FBF2F1481C1BD0B86801EB410100EB8100CE
:20270000FFF704FE88B1BB68C31A9B1004FB03F35A1C0AD07068F16800FB031028B1EB5C39
:2027200032681341DB07DDD5F8BD0020F8BD0020E6E73046FFF7EAFD3046F8BD24020020DC
:20274000ABAAAAAA1014002010B504461048FFF76BFDB8B10F4B9968411A94B111F10C0F46
:202760000FD00D4B6268E068891003FB01F102FB010038B1094B22685B5C1341DB0701D5FF
:2027800010BD002001462046BDE81040FFF7A4BF6812002024020020ABAAAAAA1014002084
:2027A0002DE9F04100284FD0414B0D46002908BF1D4604462846FFF7B3FE431C48D06268B9
:2027C000E36802FB0033002B42D03A4B22681B5C1341DF073CD500272846FFF7A1FE461CE4
:2027E00018D06268E56802FB0055002128460CF039FEE3686268EB1A93FBF2F35A1C06D0ED
:2028000020682C4901228240C85C0243CA542846BDE8F081DFF8A4804046FFF729FE0646E1
:2028200030B325483146FFF701FDD8F808702946F71B301DFFF7E6FC17F10C0F2BD10021AF
:20284000626808460CF00EFE00252846BDE8F0812846FFF765FE0130BDD11848FFF752FE83
:202860000028B8DCFFF786FE07460028ECD0B3E7002FE9D03846FFF753FE411CE4D0D8F8C9
:20288000083000EB400013EB8006DDD000213046FFF7AAFEC5E70A496268E568BB1001FB92
:2028A00003F302FB0355002128460CF0DBFDA0E7ECFC0000101400206812002024020020D7
:2028C000ABAAAAAA10B504460846FFF729FE84B1431C02460DD06068E36800FB023038B1F3
:2028E000054B21689B5C0B4113F0010F08BF002010BD002010BD00BF1014002030B319B356
:20290000C3684268CB1A93FBF2F35A1C1CD030B5104C056814F803C0012202FA05FE2CEA73
:202920000E0C04F803C0C3684468C91A91FBF4F14B1C0CD0084C0068635C02FA00F023EADC
:2029400000036354104630BD002070477047104630BD00BF101400204812002098B189B1A9
:20296000C2684368891A91FBF3F14B1C0AD0064A036812F801C0012000FA03F343EA0C035B
:20298000535470470020704748120020B0B199B1C2684368891A91FBF3F14B1C0CD010B4EE
:2029A000074C0268635C012000FA02F223EA020363545DF8044B704700207047704700BF1B
:2029C0004812002088B179B1C2684368881A90FBF3F0431C08D0054B996800EB400011EB86
:2029E000800002D004307047002070472402002070B505460D480E46FFF716FC68B10446F9
:202A0000012D0CD01DB963680BB1984730B92046FFF77CFC04460028F2D1002070BDA36826
:202A20003046002BF3D09847F0E700BF30140020054B10B51B689847044B5B689847044BA2
:202A4000BDE810405B681847D0FE000048F900001812010008B5064A0649074802F0FCF894
:202A6000064802F0D1FABDE80840FEF7B3BC00BF10FD000018FD00005CF800001CFD0000AC
:202A800070B5038884B00446002B36D0DE2B2FD16648FEF7D5FD002800F08C80644D2B68F1
:202AA00083B9644B03A99B6A06209847624A6349634802F0D1F80399624802F0CDF82B6827
:202AC00001332B60604D6B6A9847002800F083806B695E48984700287DD05D4BDB68984723
:202AE0005C4D52484021FEF797FD2B78012B5FD000230320238004B070BD554B1B689847DF
:202B00000546002870D04B4D534EEB6A082106209847AB6A4F4D03A906209847464A4749C4
:202B2000474802F099F80399464802F095F84B4809F01AFC09F00AFC03783F4A032B2B7864
:202B40003BD0A3F10103B3FA83F35B093B493C48337002F081F8424802F056FA364A374969
:202B6000374802F079F831783E48003918BF012102F072F83378002B50D12B782E4A2F492C
:202B80002F48022B3BD002F067F8374802F03CFA364B009300221146354843F6225307F0DF
:202BA00005FF22484021FEF737FD2B78012B9FD1DE232380012004B070BDA3F10203B3FAF2
:202BC00083F35B091D491E48337002F045F8294802F01AFAC2E7184A1849194802F03CF813
:202BE000254802F011FA7BE7134A2449144802F033F8234802F008FA2846FDF7AFFB02F069
:202C00002BF8204802F000FA184A009200231A4643F62251164807F0C9FEC6E70F20FFF72C
:202C200041F9094BDB689847A7E700BF4814002058140020D0FE000038FD000054F8000040
:202C40005CF8000068FD00009811010038140020600300206F6A00205A6A00203D2D0000DB
:202C6000A4FD0000C8FD000010FE0000892C00005C14002080FD000024FE0000C4F900003F
:202C80003CFD0000DCFD00002DE9F041079DBDF82080204C0F200E46FFF704F963685FFADC
:202CA00088F12846984740B323691B4F98471B4A1B491C4801F0D0FF1B4801F0CDFF304603
:202CC000FFF728FB202002F099F96C1E033514F8011F384601F0C0FFAC42F8D13046FEF7D9
:202CE000A3FB124B024641461B88114801F0B4FFBDE8F0410F20FFF711B9084A0D490948AC
:202D000001F0AAFF0C4802F07FF9BDE8F0410F20FFF704B96003002008FD000038FD0000E6
:202D200054F800005CF8000038FE00003C6A002040FE0000C4F9000054FE00002DE9F04F55
:202D4000FF2983B00F46804615461C464CD8002C47D0013C55FA84F30093DFF8BCB0DFF829
:202D6000C4A008F1FF336E1E019308F1030509F039FD224B224C18600246C368516800688D
:202D80009268DFF8A4900FC4A4F1100016F8011FFEF766FB5A4651461A4801F05DFF1A48EA
:202DA00001F05AFFA4F11000FFF7B4FA202002F025F9019C14F8011F484601F04DFFAC42AE
:202DC000F8D1124A337812881148394601F044FF0B4B10483A46414607F0D6FD009B9E4283
:202DE000C5D103B0BDE8F08F0B4A0C49054801F033FF0B4801F030FFA9E700BF3414002022
:202E0000381400205CF8000090FE00003C6A002040FE00005C14002038FD000098F900000A
:202E200070FE000054F8000008FD000008B5044B1B699847034B0022C3F8FC2F012008BD28
:202E400008FF000000100040A1B118280ED8DFE800F00F180D0D2D24635E4741130D0D0DD7
:202E6000807C78740D706C683D3A3600012070470020704702207047384B1B780B60002043
:202E80007047374B374AD3F80835A2FB03239B080A33DBB200200B607047334BDB7800200D
:202EA0000860002BE4D001230B6070472E4B1B7800200860002BDBD004230B6070477D2332
:202EC0000B600020704700200860704710230B6000207047254B93F900300B60002070478E
:202EE0001F4A012382B05361D2F81C31002BFBD00020C2F81C01D2F81C310193019BD2F84A
:202F0000483503F07F035B420B6002B07047164B5B790B6000207047134B5B780B6000201B
:202F200070470A230B600020704720230B600020704703230B600020704708230B600020C8
:202F40007047D8230B60002070471A230B60002070470B230B600020704700BF5B6A0020EA
:202F600000100040CDCCCCCC500200205C6A00200120704730B583B0FEF78CFFBFF35F8F68
:202F80001D4B1B78ABB11D4B1D4902224FF0FF34C1F80843C3F88021C3F88020BFF34F8F2B
:202FA000BFF36F8FBFF35F8F03B0BDE83040FEF775BF03F0FF02124B1049C3F83021D3F84F
:202FC00030410194019CC3F83421D3F8342100924FF0FF34009DC3F8084302224FF440547C
:202FE000C1F88021C3F804430A60BFF35F8F03B0BDE83040FEF752BF5002002000E100E06A
:203000000010004070B51D4CD4F85055EDB2032D82B02DD01A4B1B4A1B49C4F80415C3F8A5
:20302000102502F5DE421432C3F8142501264FF00062C3F80465C3F80425FFF79BFFD4F8DE
:203040000032124A43F01003C4F80032D4F80032D26843F40023C4F800329047022D09D04F
:203060000023C4F85831D4F858310193019B666002B070BDA66002B070BD00BF00100040CA
:2030800000F00140381100408414002008FF000070B5314B314D0024C3F8384184B0D3F841
:2030A00038210092009AC3F80C41D3F80C210192019AC3F83441D3F834210292029AC3F822
:2030C0003041D3F8303129780393039B4B1F7A2B38D88C1E2246691C0CF0DCF92B195B78E0
:2030E0003F2B2DD89B00DBB21D4E1B4A3370D2F848151C4B01F07F01494249B21970042094
:2031000089B201F025FD3178032001F021FD164B2A7816491A74D1F84C055860D1F848159E
:2031200099605200DA60586802381860812200210A480CF097F9FFF765FF204604B070BD55
:20314000FF23D1E78122214628460CF08BF9FFF759FF204604B070BD001000408414002000
:203160005B6A00205C6A00200815002000800040144BD3F8FC0F28B1D3F85025D2B2032A88
:2031800001D000207047104A127802F0FF0072B10E4A1278053A7A2AF3D8D3F83021002AB9
:2031A000EFD1D3F83401B0FA80F040097047074A1378053B7A2BE5D892F8800080F001003C
:2031C000704700BF001000405002002084140020074A1378053B7A2B08D8064BD3F83031E1
:2031E00013B992F880007047012070470020704784140020001000400C2801D001207047AE
:20320000042A05D121B1034B1B680B6000207047022070470815002030B5224B224C5B781C
:203220000122DBB2C4F80C3585B0E260D4F85035DBB2022BFAD100231C4AC4F80425C4F86A
:203240000C31D4F80C210192019AC4F86C31D4F86C210292029A164DC4F85431D4F8543133
:203260000393AB68039A9847D4F80032012243F48023C4F80032226005F098FE6FF00203CF
:203280001C1A05F093FEE042FBD4074AD2F85035DBB20B2BFAD02B699847FFF7B3FE00201A
:2032A00005B030BD50020020001000401C15002008FF00007D290A4601D90120704708B5ED
:2032C00001460448931C00F8013B0CF0E3F8002008BD00BF1C15002010B4174B17490F22F5
:2032E000C3F810258A780A3A02EB8202C3F808250879CC798A794979120642EA0422024305
:2033000042EA0142C3F86C260D4C0E4840F202210022C3F83415C3F838457F21C3F83C25D3
:2033200040F20122C3F81405C3F81815C3F850265DF8044B704700BF00100040500200206F
:20334000211001000800000608B5084BD3F8FC2F1AB1FFF757FE012008BD0122C3F8FC2F22
:20336000FFF7BAFFFFF74EFE012008BD0010004010B51E491E4C1F484FF0804200230B609A
:2033800023704B6003708B6082B0CB600B74C2F80031D2F800310093012300991360D2F842
:2033A0000031002BFBD00024C2F80041D2F80031019321461048019B01F01EFD21468122C7
:2033C0000E480CF04FF80E4B1B6898470D4B0122C3F8FC2FFFF780FF0B4A1378DBB21370D3
:2033E000FFF7C8FD204602B010BD00BF081500205C6A00205B6A002040020020841400204C
:2034000008FF0000001000405002002000B51B4BD3F8FC2F85B052B3FFF7F4FD174B00222D
:20342000C3F84821D3F8481103910399C3F84421D3F8441102910299C3F84C21D3F84C2146
:20344000019201220199DA6202E0D3F844211AB9D3F84821002AF8D0084BD3F84801D3F8A3
:203460004431B0FA80F0400905B05DF804FB0122C3F8FC2FFFF730FFCEE700BF0010004079
:2034800010B50388044663B140F2E23293420DD1822901D0012010BD134A1378053B7A2B4E
:2034A00008D940F2E2332380012010BD00230380032010BD0D4BD3F830311BB992F880302B
:2034C000002BEED00AF006FF01F0F8F901F0CCFA8021FFF7DDFD0028E3DD80B201F0BEFA37
:2034E000034BDB689847DCE7841400200010004048F900007D2801D90120704708B50F4BE2
:20350000D3F8FC2F42B1FFF77DFD0D4BDB7873B9BDE80840FFF780BE0122C3F8FC2FFFF75B
:20352000DBFEFFF76FFD064BDB78002BF0D0FFF76DFF0028ECD1022008BD00BF0010004084
:20354000500200207D290A4601D9012070470146124808B5931C00F8013B0BF09BFF104B20
:20356000D3F8FC2F42B1FFF74DFD0E4BDB7873B9BDE80840FFF750BE0122C3F8FC2FFFF75A
:20358000ABFEFFF73FFD074BDB78002BF0D0FFF73DFF0028ECD1022008BD00BF1C150020B2
:2035A000001000405002002038B50D4607280FD8DFE800F0101C0E0E423B4D043A4B3B481E
:2035C000C9B25971D0F8FC2F002A54D1002038BD012038BD01295CD0002944D1344B1B69A2
:2035E0009847324BC3F8FC5F284638BDA1F10B030F2B38D82C4B2D4CCAB29A70D4F8FC3F8F
:20360000002BE3D02A4B1B699847A5F10A01002301EB8101C4F8FC3FC4F80815D4F8FC3FEB
:203620001BB3FFF7EFFC002038BD31F001001AD11D4BC9B2D97038BD31F0070413D11A4B23
:20364000C1F380011970FFF795FC204638BD164A164BCDB25570D3F8FC2F002AB6D0C3F864
:203660000C55002038BD022038BD0123C4F8FC3FFFF732FED5E71C7993F807C09A795979F4
:20368000130643EA0C23234343EA0143C0F86C369CE7064BD3F8FC2F002AC2D1C3F8FC1F27
:2036A000FFF71AFEBDE700BF500200200010004008FF00001A4B1B6803B11847194B1B78DE
:2036C00003F0FF025BB900B5174BD3F8301183B031B9D3F834219AB903B05DF804FB704771
:2036E000C3F83021D3F830210092104B00991048012283F8802003B05DF804EB01F070BC72
:20370000C3F83411D3F83431019381220748019B0BF0A8FE03B05DF804EBFFF773BC00BFDB
:20372000801400205002002000100040841400204002002010B580B1012800D010BD0E4CE3
:203740002369A070002BF9D01A6822615B68012098472369002BF7D1F0E7074CA36801223A
:203760006270002BEAD01A68A2605B6800209847A368002BF7D110BDA015002010B50B4C90
:20378000237882B013B1852002B010BD08486360A3602361E36000F011F9019000F01AF909
:2037A00001980123237002B010BD00BFA01500203537000038B5154DAB78044673B110B199
:2037C0004368012098470020FCF72AFEEB680133EB600020BDE83840FCF72ABE03F0FF0027
:2037E000FCF71EFE64B12A6942B1944208D0134601E09C4204D01B68002BFAD122602C61FD
:20380000EB68002BE2D100F0FDF8DFE7A015002030B50D4B0D4C027853F8213054F82110CE
:20382000848885B08DF80020ADF8044082688DF80620D0E9035442698DF80750CDE9024293
:203840006846984705B030BDBC150020B41500202DE9F04F164690F800A0534A42F82A6025
:20386000524A42F82A304B7B81B080460C4663B94F4A002E534608BF3246214608F10400EA
:2038800001B0BDE8F04F00F001BE0B68494FDFF828B103F5E0724FF0A04340F20C6143F8E3
:2038A0002210626802F5E0724FF0010943F8221021681F2984BF01F01F0103F5407301221A
:2038C0008A40C3F8082563681F2B8ABF3A4A4FF0A04203F01F0309FA03F3C2F808352368A3
:2038E0004FF0A04203F5E07340F20D6142F82310636803F5E07347EA090742F823104FF448
:203900008070B847002562681F2A8ABF5B464FF0A04302F01F01D3F8103598BF1146CB4099
:20392000DB073DD423681F2B8ABF5A464FF0A04203F01F0309FA03F3C2F80C354FF4807079
:20394000B84723681F2B86BF03F01F035A464FF0A04209FA03F3C2F808354FF4807001351F
:20396000B847092DCFD162681F2A8ABF12494FF0A04102F01F02012303FA02F2C1F80C2589
:203980004FF48070B84762681F2A86BF0A4902F01F024FF0A04101239340C1F8083567E7DC
:2039A000002DE1D164E700BFBC150020B415002011380000E0F7000000030050044A1379F7
:2039C00023B90121106091801846704785207047C41500200A4B1A68D20705D54FF0804372
:2039E0000122C3F818257047C02283F8002301221A604FF080430122C3F81825704700BF45
:203A000000E100E04FF080430022C3F8042182B0D3F804210192019802210122C3F804137B
:203A20009A6002B0704700BF10B54FF0804382B0D3F8002162B10021164AC3F80011D3F854
:203A40000011507900910121009CC3F80813A8B14FF08043D3F80421CAB10022C3F804219F
:203A6000D3F80421019202210A4A0198C3F808131368012002B0BDE81040184713685171FE
:203A800098474FF08043D3F80421002AE5D102B010BD00BFC415002070B5184D95F86A407D
:203AA00082B044BB3022A818FF210BF0DBFC28464FF0FF3640F8046B2C22FF210BF0D2FC11
:203AC0000F4BA5F86840C022C5E9186483F8062340221A600B4BC3F87C41D3F87C11019103
:203AE00001984FF000420121204685F86A10C3F8042302B070BD082002B070BDCC15002064
:203B000000E100E000600040034B93F86A00003818BF0120704700BFCC150020F0B5444D24
:203B20002B1893F93030002B01DB0820F0BD8E78C6F34006002E0CBF0823002305EB830CAF
:203B4000ACF1040C0CBF4FF00C0E4FF0080E02E001339E453ED95CF8044F0134F8D145F84D
:203B600023202A185CB282F8304016B9EA1882F858008A7856071ED4D70749D51F2887BF4B
:203B80002C4A00F01F0606464FF0A04202EB8602D2F8006726F00206C2F80067264FC60805
:203BA00000F0070E17F806C0012202FA0EF242EA0C02BA558A7812F002020DD1083C45FA5A
:203BC00084F5097895F8603043EA811385F860301046F0BD0420F0BD9B0003F1804303F5E2
:203BE000C0430978D3F8104524F44F3424F44074C3F8104502020904D3F8100501F4403153
:203C000002F47C520A430243C3F810250020F0BD1F284E7887BF074F00F01F0202464FF050
:203C2000A04702F5E072B60047F82260B6E700BFCC150020000300503016002030B4344C63
:203C400004EB000C82B09CF93030072B24DD083B44FA83F393F860309B09032B47D0012BE8
:203C60000CBF4FF400324FF440321F288ABF294B4FF0A04300F01F0003EB8000D0F80037AD
:203C800023F44033C0F80037D0F800371A43C0F8002702B030BC7047DAB2072AF9D89800F5
:203CA00000F1804003F1400200F5C04052B29200D0F8105592B202F1804202F5C04245F03E
:203CC0000105C0F810550020106012680192019A0029DED09CF9302054F82220002AD8D06D
:203CE0000D49012202FA03F3C1F80433D1E71F288ABF084A4FF0A04200F01F03D2F810259D
:203D000098BF0346DA4002F0010202321204ACE7CC1500200003005000600040194B034478
:203D200093F93030072B18DCDAB2072A14D810B49A0002F1804202F5C042134CD2F810057E
:203D4000012120F0010001FA03F3C2F81005C4F808335DF8044B704770471F288ABF0B4B81
:203D60004FF0A04300F01F0003EB8000D0F8003723F44033C0F80037D0F80037C0F800373E
:203D8000704700BFCC15002000600040000300502DE9F04F0022164689B0CDE90222724B16
:203DA000724C73480122354604E0043383424FEA420211D019680129F7D1D4F80413114205
:203DC000F3D01D60196800910433834246EA020600994FEA4202EDD1644BD3F87C21012A47
:203DE00021D0F3B2D3B1634F01250024A30003F180432E4203F5C0434FEA45050BD0D3F8BF
:203E0000100557F82420D3F81015C0F30520C1F3014102B190470134082CE7D1002E16DB72
:203E200009B0BDE8F08F0022C3F87C21D3F87C3101934FF0A042019BD2F810254E4B029236
:203E4000D3F810250392F3B2002B40F089804FF0FF334A4D0DF1100ACDE9063300220492FD
:203E6000CAF80420A5F16408454C0027012614F9010B431C33D0C0F3C20E0EF120030DEB63
:203E8000030C00F007031CF8081C06FA03F31942C2B200F03F0022D008EB000191F930103D
:203EA00058F821909109B9F1000F4BD003294BD01F288BBFDFF8C0E04FF0A04E02F01F0204
:203EC00002460EEB82021CF818ECD2F800C71EEA030FCCF3014C1AD1BCF1030F3BD0A542B2
:203EE000C5D1002F9CD04FF0A0430299D3F81035214A9942D2F8102502D1039991428FD0DE
:203F0000DDE904010293069003920791ACE7BCF1020FE4D1032904D0B9F1000FDFD0C84701
:203F2000DDE74FF4403CD2F8003723F44033C2F80037D2F8003701374CEA0303FFB2C2F8A2
:203F40000037E9E70329CAD11AF80EB04BEA030B0AF80EB0ACE70329DED14FF4003CE2E70A
:203F600046F000463FE700BF006100400060004020610040CC150020000300503016002024
:203F80002C160020074B0022C3F8002182B0D3F800210192019A044AD3F808051368C0B210
:203FA00002B0184700D000403816002030B41F4C437944F823201E4C03EB4303E35C93BBBD
:203FC00090F904308A78002B26DB03F16043520103F56143D2B283F8002390F90430002B66
:203FE00009DB144D4FEA531C012203F01F0302FA03F345F82C3003680A88C3F80825437970
:204000000879C97803EB4303E21850700120E0549170002030BC7047074D03F00F0352012B
:20402000D2B2EA54D9E7082030BC7047401600203C16002000E100E014ED00E00368044AF0
:2040400001211960437903EB43030221D15470473C16002010B403680024C3F8004183B0E2
:20406000D3F80041036801940122019CC3F8442311B10368C3F8042303B05DF8044B704735
:204080002DE9F041274E284FDFF8A08084B000244FF48035D6F804332B4211D057F82430B0
:2040A0000022E0B263B1C6F84853C6F8085347F8242057F824300393D8F80030039A98478E
:2040C0000134032C4FEA4505E4D1164BD3F80423D10702D5D3F80021C2B9124BD3F804238C
:2040E000920710D5D3F804216AB10022C3F80421D3F804210D4B0192019A1B68052004B063
:20410000BDE8F041184704B0BDE8F0810022C3F80021064AD3F80031029304201368029A86
:204120009847DAE700B0004040B1004040160020F0B491F82F308AB0B3B9D0F824214C6B52
:204140008D6A002A34D0C0F82431D0F8243104930123049A436181F82F30AC4217D0012342
:2041600018460AB0F0BC70470023C0F82431D0F824210392039AC0F81C31D0F81C210292B7
:20418000029AC0F80831D0F808310193019BD0F80431002BE3D00023C0F80431D0F8042189
:2041A0000992099A81F82D3018460AB0F0BC7047D0F81C61A6B1C0F81C21D0F81C610596FF
:2041C000059ED0F82461002E37D0C0F82421D0F8243106930123069A436181F82F30BCE724
:2041E000D0F80821002AB8D0C0F80861D0F808210792079AD0F8242152B1C0F82461D0F8BB
:20420000243108930123089A436181F82F30A4E74A6B8E6AB242A0D24E6AD0F81875B754B6
:204220004A6B8E6A013206F1FF3C62454A6321D0B24226D0012303628FE74A6B8E6AB2429D
:2042400007D24B6A9B5CC0F81C354B6B01334B6383E791F82C202AB90A6A520605D401234D
:2042600043617AE70122C2617AE70122C26181F82D2075E70F6A7F060BD40223C0F800323E
:20428000D8E70A6A52067FF568AF022281F82D2066E7B242CED1F8E710B586B00023374AC0
:2042A0000192C0F80431D0F804210592059AC0F82431D0F824210492049AC0F81C31D0F840
:2042C0001C210392039AC0F808318A6A0446D0F808010290012A02984B6381F82F3046D07C
:2042E0000123C4F800320123236291F82D20022A18BF23600B687BB140F286238B608B684F
:20430000C4F80433002006B010BD2046FFF710FF28B1019B013B0193019B002BF5DC91F836
:204320002F30C3B1D4F8C434C4F8C4349BB113F0010F18BF4FF4024048F2012208BF032030
:2043400013F0020F18BF104648F2022213F0040F18BF104600E00020019B002BD3DC0022E3
:204360000523C4F800250320C4F80035CBE70B6A5B06B5D40223C4F80032B4E7A08601003A
:2043800010B586B00023404A0192C0F80431D0F804210592059AC0F82431D0F82421049222
:2043A000049AC0F81C31D0F81C210392039AC0F80831D0F808210292044601220298C4F8EA
:2043C00000324B6381F82F30226291F82D30934218BFA2604B6B8A6A934237D24A6AD35CA2
:2043E000C4F81C354B6B01334B630B687BB140F286238B608B68C4F80433002006B010BD2A
:204400002046FFF795FE28B1019B013B0193019B002BF5DC91F82F3033B3D4F8C434C4F882
:20442000C4340BB313F0010F18BF4FF4024048F2012208BF032013F0020F18BF104648F295
:20444000022213F0040F18BF10460EE091F82C30B3B90B6A13F0400F4FF0010316BFE36193
:20446000636181F82D30C0E70020019B002BC5DC00220523C4F800250320C4F80035BDE790
:204480000123E361B1E700BFA0860100F0B590F804E0394CCEEB0E1504EB850CAE009CF802
:2044A0002E50002D5ED1A251CCF808508CF82D508CF830508CF83150CCF804304B7B8CF8C7
:2044C00038300B681F2B86BF03F01F032B4D4FF0A04503F5E07340F20C6645F823604B685F
:2044E0001F2B86BF03F01F03244D4FF0A04503F5E07340F20C6645F82360D1E90056036859
:20450000C3F80855C3F80C658D68C3F824554FEA0E17F2B102680B7B42F3073100294FEA6E
:20452000123221DB01F160415B0101F56141DBB281F8003303681A0B43F30733002B08DB6D
:204540000F485B09012102F01F0201FA02F240F82320A7EB0E0704EB8704012384F82E30E2
:204560000020F0BD0820F0BD064902F00F025B01DBB28B54DEE700BF44160020000300502E
:2045800000E100E014ED00E00379064A0168C3EB031302EB830305200222C1F8000583F88B
:2045A0002E207047441600202DE9F04190F804C09DF81840244F0068CCEB0C15002C07EB2B
:2045C000850418BF202694F82DE008BF0026BEF1020F2CD0DFF874E0C0F808E394F83080E9
:2045E00008F0FF0EB8F1000F28D1CCEB0C1C07EB8C0C2662003E18BF0126AD004FF00108E3
:2046000084F830808CF80CE0C0F8881561732361A362C4E9062E84F82C606146C4F814E00C
:204620006262FFF7ADFE7B5923B1BDE8F0810820BDE8F08184F83030BDE8F081A368C0F864
:2046400004331120BDE8F0814416002086420400F8B590F804C01C4F0068CCEB0C1507EB00
:2046600085040E4694F82D10012923D01749C0F8081394F8301001F0FF0E01BBCCEB0C1CDF
:2046800007EB8C0C0121AD0084F83010C4F820E08CF80C102361A362C4E9062E6146C0F8E0
:2046A00088656673C4F814E06262FFF7F5FD7B5913B1F8BD0820F8BD84F83030F8BDA36812
:2046C000C0F804331120F8BD441600208642040070B5314C314D86B021462846FFF728FD79
:2046E000C8B994F82F30C3B9227B901E012830D92B4E00238DF800300FCE01AD0FC533680A
:204700002B60236A0022590784F8302003D4D4E900316846984706B070BD04F10C0EBEE849
:204720000F000DF1040CACE80F00DEF80030CCF80030D5F8C434C5F8C4349A0705D45D0767
:204740001ED502238DF80030DBE701238DF80030D7E7666AA0698642CAD184F82D30236A91
:20476000C3F3401384F82C30E3696362032A6369A36228460AD006B0BDE87040FFF78CBDB7
:20478000D80744BF03238DF80030BAE706B0BDE87040FFF7F5BD00BF44160020003000405F
:2047A0005016002010B5084CD4F8003182B04BB1064B1B6898470023C4F80031D4F800316F
:2047C0000193019B02B010BD000001408016002070B5114B114A1D781160DDB9104E0278E3
:2047E00001211970C6F80C25416804464FF47A720023C803490C09F079FDC6F80405237AE7
:20480000084A5B01DBB282F810334FF480331360284670BD082070BD5E6A002080160020A9
:204820000000014000E100E0044B054901220220C3F804231A600870704700BF0000014009
:204840005E6A002010B504460020FBF7E9FD0E4A1378072B11D80D492370581C1070D1F8C5
:204860000805012202FA03F30343C1F8083500240020FBF7DDFD204610BD04240020FBF75D
:20488000D7FD204610BD00BF5D6A002000000140034B044A00F5C07043F82020704700BF78
:2048A000000001403546526E704700BF704700BF704700BF704700BF704700BF0D480E4A81
:2048C0000E49002310B503800D480E4C03800E4813600370C2E902332046C2E904335360CD
:2048E0001383FDF78FFC04F108000449BDE81040FDF788BC406A002014170020ECFC00002F
:204900003E6A0020841600205F6A00202DE9F041154ADFF86880154FDFF864C0144E0C46B4
:20492000802914494FF00003C2E90033C2E90233C2E904330B70138305464146384628BF47
:204940008024ACF800303380FDF75CFC414607F10800FDF757FC2246294607480AF09AFD5B
:2049600034802046BDE8F08114170020841600203E6A00205F6A002094160020ECFC00009F
:20498000406A00202DE9F0410E4A0F4B14781F88E519802D03DD00252846BDE8F081DFF816
:2049A00030802246414606460AF074FD074B198821443A46301958FA81F10AF06BFD2846EC
:2049C000BDE8F0815F6A00203E6A0020406A00209416002010B5134B134C144A94F800C050
:2049E0001B881288634452FA83F39BB21A18802A16DC013B1BB2002B0EDB0D4A591C03EB1F
:204A0000000E11447244013B1BB211F801ED02F801E9B3F1FF3FF6D160442070012010BDCE
:204A2000002010BD406A00205F6A00203E6A002094160020074A1388834209DB0649B1F8B7
:204A400000C080B21B1A60440880138001207047002070473E6A0020406A0020014B18804B
:204A6000704700BF3E6A0020044A054B12881B780448134450FA83F0704700BF406A00208D
:204A80005F6A0020941600200048704794160020014B1888704700BF3E6A00200549064AD2
:204AA000064B128808781B88104453FA80F080B2704700BF5F6A0020406A00203E6A0020B4
:204AC00030B50F4C0F4D84468E460FCCCCF80000CCF80410CCF80820CCF80C3003CCCCF8A6
:204AE0001000CCF814102388ACF818300FCDCEF80000CEF80410CEF80820CEF80C3030BDCE
:204B0000141700208416002030B584468E460068DCF80410DCF80820DCF80C300A4C0B4D03
:204B20000FC4DCF81000DCF8141003C4BCF818302380DEF80000DEF80410DEF80820DEF8CC
:204B40000C300FC530BD00BF1417002084160020024B23F810100120704700BF141700202A
:204B6000014B33F8100070471417002008B5044B0D3803EBC000FDF745FB012008BD00BFD4
:204B800084160020024B0D3803EBC000704700BF8416002001490248FDF73ABBECFC000086
:204BA0008C16002008B5FDF76BF9BDE80840FDF7F1B900BF00B583B0FBF712FD002000F0DB
:204BC000A1FA07F00FFC04F0EFFA4FF08053F420CE2136228DF800008DF801108DF802202C
:204BE000D3F8A8208DF80320D3F8A43001936B4603CB034B1860596003B05DF804FB00BF83
:204C00002011002008B5044B1B689847BDE808400248002100F0F0B808FF0000E8020020D4
:204C200010B5FDF737F90446BFF35F8F00F09CF900B930BFBFF35F8F2046BDE81040FDF785
:204C40002DB900BF0AB90020704708B508461146FCF74AFA002008BD0FB400B583B004AA3E
:204C6000054852F8041B019205F0E2FF03B05DF804EB04B0704700BF600200202DE9F84F15
:204C8000DFF8CC80D8F80040844205460E4657D0002C43D0234601E0002B3FD01B689D4230
:204CA000FAD1002B3AD0294FAB7BD7F8009053B30023AB73002C45D04FF0020A4FF0010BD9
:204CC000A54211D0A37BDB070ED5A3682A465BB13C6084F80EA004F10C008721984702381A
:204CE000012828D984F80EB02468002CE8D1AB683BB1B54205D03D600022832105F10C00AF
:204D00009847D8F80040A5420AD02CB12368AB420CD01C46002CF9D1C7F80090BDE8F88FDF
:204D20002B68C8F80030C7F80090F7E72B682360C7F80090F2E721462046FFF79FFFD3E76A
:204D40002346AEE7AB68002BD3D1E5E7B0180020B418002038B583687BB104460A480460CF
:204D60000220A07304F10C000D4698470238012804D9832D02D00123A37338BD214620460D
:204D8000BDE83840FFF77ABFB0180020F8B5134A134B146800221A70D4B1124F012502261B
:204DA00001E02468A4B1E37B002BFAD0A368E581002204F10C008221002BF2D03C60A67305
:204DC00098470238012804D9A5732468002CEAD1F8BD21462046FFF751FFE2E7B4180020AC
:204DE000636A0020B0180020024B1878421C1A70704700BF616A0020F8B5164A1568854267
:204E000007D0044635B12B4600E01BB11B689C42FBD1F8BD002CFCD00F4EA3682560012581
:204E2000146000223768A573A2815BB10A460221A1733460812104F10C0098470238A84235
:204E400002D9A5733760F8BD21462046FFF716FFF8E700BFB4180020B018002030B4084895
:204E60000849094A094C0A4D00234FF08A0C03700B6013602B7084F800C030BC704700BF60
:204E8000626A0020B4180020B0180020616A0020606A00202DE9F8432D4D2B78F3B92D4EE8
:204EA0003378BBB12C4C2D49227802EB4200013202F01F02227001EB8002D2E90184013B62
:204EC000DBB211F8207033705CB1812F1ED0A27BD2071DD428781844BDE8F883FFF756FF10
:204EE000DDE71F4A14685CB9F4E7A37B13F0010F20464246394601D0FFF72CFF246814B336
:204F00002B78002BF1D0FFF741FFEEE70122A273D4F80890B9F1000FDCD0124B1C600223F8
:204F20004246A373394604F10C00C8470238012805D9832F03D001223378A273CAE7214683
:204F40002046FFF79BFE337828781844BDE8F883636A0020626A0020606A0020301700206B
:204F6000B4180020B0180020024A034B10781B7818447047626A0020636A002030B40F4C7D
:204F800094F800C0BCF1200F15D00D4B1B78634403F01F030CF1010C03EB430384F800C0E3
:204FA000084C054604F8231004EB8303C3E90125002030BC7047012030BC7047626A002069
:204FC000606A00203017002038B5837B034CDB07256801D5FFF7BEFE256038BDB0180020ED
:204FE00018B1837B013B012B00D97047024A0123C3731370704700BF636A002010B5044657
:20500000FCF76AF8204610BD10B504460AF06AFA01462046FCF768F80A20FCF75DF8002009
:2050200010BD00BF08B50448FDF710FABDE808400248FDF70BBA00BF74020020680200200E
:205040000148FDF75FBA00BF6802002038B50E48FDF70EFA044678B10C48FDF709FA054669
:20506000206058B1FFF78EFC05F19C01A5F8800005F18200FFF724FD204638BD21460248DC
:20508000FDF712FA2C46F7E76802002074020020006800F19C018230FFF712BD10B5044624
:2050A00021460748FDF720FA00B910BD21680548FDF7FAF921460248BDE81040FDF7F4B9A2
:2050C000680200207402002010B5044621460948FDF70AFA00B910BD2468B4F8801020463D
:2050E000FFF714FC04F19C0104F18200BDE81040FFF70ABD6802002008B509F0A7FA80B2DC
:2051000008BD00BF0E4A012100231160C2F80031D2F80031002BFBD0D2F8080508490023D6
:20512000C0B2C2F80031D1F80031002BFBD0D1F80825012340EA02204B6080B209F058BAD4
:2051400000D000400023013A0160027143718371704700BF8279437990F804C09B1A13EA3A
:205160000C0F07D00368511C9B5C01EA0C028271184670474FF0FF30704700BF2DE9F84338
:2051800005460C4607F02EFB002D3ED02A4B2868696803C3002C41D0284BA068E16803C3B4
:2051A000274E25480122002107F05EFC3368022B39DC244CDFF89C90DFF89C80224F04F1CF
:2051C000600514F8023C13B1237C012B04D92034AC42F6D1BDE8F8833368022BF7DD4A465F
:2051E00041463846FFF738FD1848FFF735FD3368022B2046EBDDFDF78DF83368022B4FF081
:205200000A00E4DDFFF7FAFEE1E703460A4D59689A680068DB680FC5002CBDD10C490648CE
:2052200007F0D6FDBCE70B4A0B490748FFF714FD0A48FFF7E9FEBCE7F82E0020002F00209B
:2052400020020020FE5500205CF8000030FF0000806200201CFF000054F8000020FF00008E
:205260002E4B1A7B22B1B3F84A20DB8A9A4200D070472DE9F0419AB0044608F0ADF80028D0
:2052800029DD274D2B68022B3BDC08F085F90446D8B1DFF89C80234F234E04E0204608F05C
:2052A00081F9044688B12246642101A808F0E0F92B68022BF2DD394642463046FFF7CCFCC0
:2052C00001A91A48FFF7C8FCE8E72B68022B11DC1AB0BDE8F081124B1B68022BF8DD144A6C
:2052E00010491148FFF7B8FC12481AB0BDE8F041FFF78ABE0E4A0B490B48FFF7ADFC0E4826
:20530000F3E70B4A07490848FFF7A6FC08F064F8224601460948FFF79FFCB6E7082F00204D
:205320002002002054F800005CF800005CFF00001CFF00007CFF000068FF000034FF000000
:2053400010B5044C237803B110BDFFF717FF0123237010BD646A002010B52B4C217882B097
:2053600049B32A4B002403F160011A7E1AB193F82A20012A19D020338B42F6D1204607F0B3
:20538000D9FA04B970B303F035FD4023024600932146002000F050FE00F0D8FB1C4B1B6885
:2053A000022B0EDC002002B010BD9A7EFE2A13D003F11A04DFE70846FFF7E0FE0123237063
:2053C000CFE7144A14491548FFF746FC1448FFF71BFE002002B010BDDA7E802ACBD003F12C
:2053E0001A04C8E70A4B1B68002B02DC4FF0FF30D9E7084A0B490948FFF72EFC0A48FFF772
:2054000003FE4FF0FF30CEE7646A0020E4550020200200201CFF000054F800005CF8000024
:2054200090FF0000C4F90000A8FF0000054B187B30B1B3F84A00DB8AC01AB0FA80F040091E
:20544000704700BF082F00202DE9F047294CDFF8C0809DF824A0154607460E464FF4B072EC
:2054600000212046994609F0FDFFB8F82030AB4227D108995246484603F03AFD054638B9BF
:205480001D4B1B68002B2ADC00252846BDE8F087F023E37301254FF0FF334FF2F002677334
:2054A0002573A364A4F84C30A4F85A20C4F8088030687168B268F3681C340FC42846BDE8BF
:2054C000F0870D4B1B68002BDEDD0C4A0C490D48FFF7C2FB29460C48FFF7BEFBD4E7074A63
:2054E00007490848FFF7B8FB0848FFF78DFD2846BDE8F087082F0020200200201CFF000055
:20550000C4F900005CF80000C8FF0000F4FF0000B0020020F0B590F8511090F85030028ACC
:2055200083B0CDE90031044600F13C073B46007E2146FFF789FF002863D03A4D236A627DA1
:205540006B61237FAB74637FE18B2B76AA730023626D2A60628B698385F85E302A82A27D87
:2055600085F85620227D85F85520E27D85F85420AA6885F8573013682B4E98472B4803F008
:2055800087F803F037FA3268022A10DC012A05DC03F07CFA0125284603B0F0BD244A254971
:2055A0002548FFF759FB2548FFF72EFDF0E7204A23492148FFF750FB697B2248FFF74CFBC4
:2055C0003268022AE2DD05F11C00FCF7A3FE3268022ADBDD1C48FFF73FFB3268022AD5DD16
:2055E0003846FCF797FE3268022ACFDDB5F84A2094F850101548FFF72FFB3268012AC7DD4A
:20560000CCE7094B1B68012B0546C4DD084A09490948FFF721FB0E48FFF7F6FC284603B082
:20562000F0BD00BF082F0020200200200C0001001CFF000098F900005CF800007C000100DB
:2056400054F8000030000100600001006C0001001400010010B5104B1B68012B09DD0F49DD
:205660000F4A04460F48FFF7F7FA0F482146FFF7F3FAFFF7DBFE0D4B08B983F85E009B68E4
:205680001B68984702F0ECFD094803F001F8BDE8104003F06DBA00BF2002002098F90000EF
:2056A0001CFF00005CF80000B4000100082F0020C800010070B5184C184E94F9542094F82A
:2056C0005430002A03F10103B4BFDBB203F07F0384F854303368F022012B0546E27307DC53
:2056E000237B23B1BDE870400D48FFF7B3BF70BD0C4A0D490D48FFF7AFFAB4F84A3094F8A7
:2057000054200B482946FFF7A7FA3368022BE7DD084802F037FCE3E7082F00202002002058
:20572000240101001CFF000098F900005CF80000D80001000C0101002DE9F041724DB5F8A9
:205740004A4003F00BFA95F85E30032B60D0FFF76DFE064620B1AB68BDE8F041DB69184744
:20576000D5F84480694F02F0CDFD02F00FFD686C02F0DAFCA5F84A003868FCF7E5FF0446E2
:2057800000283CD1B8F1000F66D0B5F84A30B5F848209A4201D9A5F84830B5F84C304FF671
:2057A000FF7293420AD0B5F84A10914206D0CB1A002BB8BF5B42B3F5007F50DC95F85D3088
:2057C000002BC8D06B6C524C002B64D0B8F1000F76D002F0ADFF2368022B58DC002385F80A
:2057E0005D30AB68BDE8F041DB691847236833B321463868FCF770FF04460028C2D020464C
:2058000002F092FCB5F84A308342EFD82660EFE7002002F0BBFC4FF6FF739C42A5F84A3084
:2058200099D03B4B1B68012B0DDC3A4802F030FF03F02CF9AB68BDE8F041DB691847FAF7A9
:2058400085FF2060D4E7344A34493548FFF704FA3448FFF7D9FBE8E7B5F84A309BE72C4CE7
:205860002368012B0DDD2C4A2C492D48FFF7F4F9B5F84C10B5F84A202B48FFF7EDF9B5F828
:205880004A102A48A5F84C1002F002FF96E7284802F078FBA2E785F85E302368012B07DDCF
:2058A0001D4A1E491E48FFF7D7F92248FFF7ACFB184802F0EDFE02F073FE03F0E7F88AE704
:2058C00001231D4885F85E3002F0E2FE2368012B02DC03F0C7F87CE70F4A10491048FFF7B8
:2058E000BBF91648FFF7B8F92368012BF1DD686C02F026FCFCF70EFD2368012BE9DD1048AF
:20590000FFF782FBE5E700BF082F0020D402002020020020580101001CFF000098F90000F4
:205920005CF8000034010100680101008801010018020100D0010100A0010100AC010100AC
:20594000BC01010003289ABF024B53F820000248704700BFA805010028020100094A137BD3
:2059600073B110B4044640B102F11C0CBCE80F0020606160A260E36001205DF8044B704734
:2059800018467047082F002038B5224D2B68022B22DC214CFFF74AFD78B994F95A2094F813
:2059A0005A30002A03F10103B4BFDBB203F07F03002084F85A3001F0ABFEFCF7F9FB02F02D
:2059C0004FFC07F031FE03F0A7F894F841305B061AD40023237338BD104A114911480E4C63
:2059E000FFF73AF91048FFF737F92B68022BD1DD04F11C00FCF78EFC2B68022BCADD617BC1
:205A00000A48FFF729F9C5E7094803F029FA0023237338BD20020020082F00201CFF0000A7
:205A200054F800005CF800003002010040020100342F0020024B032283F85E2003F098B81F
:205A4000082F002010B51D4C237BABB1236D5A1C12D0834211D9181AB0F5967F20650BD2E2
:205A6000606C48B1164B1B68012B1BDC02F068FBBDE8104001F06EBC10BD114B1B68002227
:205A8000012B226507DD0F4A0F491048FFF7E4F80F48FFF7B9FA032384F85E30BDE810406F
:205AA00003F066B8074A08490848FFF7D5F8216D0848FFF7D1F8606CD8E700BF082F0020E2
:205AC000200200201CFF000098F900005CF80000500201007002010010B5084C237B5BB1FB
:205AE00094F840200146D20804F11C0009F0C2FCB0FA80F0400910BD184610BD082F00201F
:205B000010B50446FFF792FC20B12046BDE81040FFF7D0BD10BD00BF024B1B7B0BB1FFF722
:205B200099BD7047082F0020074B9A7B187B1AB9003818BF0120704728B193F85E00012862
:205B400094BF002001207047082F0020024B1B7B03B97047FFF7F0BD082F00202DE9F84302
:205B6000A44D2B7B06460C462BB16A7B237E9A4209D0BDE8F883FFF759FC98B12B7B002B54
:205B8000F3D1BDE8F8839C481022214609F072FC0028EED1628AEB8A9A4221D2BDE8F84346
:205BA000FFF7CABD637D012B40F28D80934F3B68012BDEDD9249934A9348FFF74DF8617D05
:205BC0009248FFF749F83B68012BD2DD8D4A8C498D48FFF741F8BDE8F8438D48FFF714BA0D
:205BE000E17D95F8540003F0E7F8628A002872D14FF6FF739A4204D095F85930013385F80F
:205C0000593095F85410E07D03F0D6F8002835D0EB8AB5F84A20794F9A423B6800F0A780D5
:205C2000012B0ADD774A76497748FFF715F8E27D95F854107748FFF70FF8FFF7F7FBE8B97A
:205C40003B68012B00F3058102F066FF002002F09DFA637D012B40F20F813B68012B08DD7A
:205C60006749684A6848FEF7F7FF617D6748FEF7F3FF2B7B13B16848FFF7ECFC2246012131
:205C8000304601F019FB002861D0304602F02CFB8046002868D090F80690304602F024FBD6
:205CA00000287DD0638A8380637E83712B6DCBB1B8F1000F02D06B6C984513D02B7B002BA4
:205CC0003FF457AF6AE72046FFF724FC00287FF455AF4A4F77E7EB8A9A42EFD14F4802F08E
:205CE000D7FCEBE7454F3B68022B00F3A9806B8BC3EB03135B012B65AB7B002BDED0B8F131
:205D0000000FDBD06B6C9845D8D1607E494603F053F80028D2D095F90F20EB7B002A3A6808
:205D200003F10103B4BFDBB203F07F03012AEB730ADD344A32493448FEF78EFFEB7B627E49
:205D400037484946FEF788FF02F0F2FCB6E72B4B1B68002BB2DD2B4A32492B48FEF77CFFB6
:205D60003148FFF751F9A9E74FF0F00995E7002B0ADD244A2B492448FEF76EFFE27D95F878
:205D800054102A48FEF768FFE37D85F85430FFF74DFB00283FF472AF2548FFF78BFC6DE778
:205DA000304606F011FC00286AD0224B0146012218682346FCF7F4FC00287FF473AF0F4F4A
:205DC0003B68002B7FF77AAF0E4A16490E48FEF743FF1948FFF718F93B68002B7FF76EAF49
:205DE000084A10490848FEF737FF1448FFF70CF964E700BF082F0020242F00202002002010
:205E000098F900001CFF00005CF80000AC020100D80201007403010024010100EC0201006B
:205E200060040100C4F90000F00301000803010058030100D40200201004010028040100AC
:205E4000104A11491148FEF707FF1148FFF7DCF84DE70C4A0F490D48FEF7FEFEB5F84A20D8
:205E6000E17D0D48FEF7F8FE3B68022B7FF7ECAE0A4802F087F8E7E62046FFF74BFBF8E694
:205E8000074FA9E71CFF000054F800005CF800004C04010098F90000B80301000C010100B5
:205EA0002002002011B1104802F0F2BB10B50A460321044601F000FA40B10C4B1B68022B81
:205EC00005DC2046BDE8104001F086BA10BD084A08490948FEF7C0FE0848FFF795F82046A8
:205EE000BDE8104001F078BA98040100200200201CFF000054F800005CF80000A804010043
:205F000038B591F823300C460546BBB1FF2B1BBF144A508B4FF0FF3343430A46002029469C
:205F200007F0D6FA80B194F92530002B00DB38BD218C2846BDE8384002F01EBC0A460146F1
:205F4000184607F0A1FAEEE7074B1B68002BEEDD064A07490748FEF77FFEBDE838400648E5
:205F6000FFF752B8082F0020200200201CFF0000C4F900005CF80000C8040100F8B51C4E78
:205F80000D4696F85B10044602F016FF08B186F85B4096F85A30A34200D0F8BD96F85E30F4
:205FA000012B6FB215D002F005FC002FF5DA114B1B68012B09DD104A10491148FEF74CFE82
:205FC00010482A462146FEF747FE032386F85E30F8BD002F02DA02F0EDFBE8E702230A4846
:205FE00086F85E3002F054FBBDE8F84002F0E2BB082F0020200200201CFF000098F90000A3
:206000005CF80000F8040100EC04010070B505460E461C463AB924B11DB1064BAE801B7B6D
:2060200023B9012070BD02F06DFBF4E7FFF784FB012070BD082F00202DE9F047384C82B0E4
:206040009946237B9DF828A005460E4617465BB1102204F11C0009F00DFA002838D04FF0AC
:20606000F008FFF791FC01E04FF0F0083B46314628460122CDE9009AFFF7E6F929492A48FB
:206080000A7860610023C2F11402A37484F85530A4F8563002230120227484F85E301E2271
:2060A0008023224D0978A0732276A4F84A303C224FF0FF331E48236584F8548061746283C5
:2060C00002F0E6FA2B68022B0FDC02B0BDE8F08794F9543094F85480002B08F10108B4BF64
:2060E0005FFA88F808F07F08BBE7124A12491348FEF7B2FD617B1248FEF7AEFD2B68022B5A
:20610000E3DD1048FCF706F92B68022BDDDDB4F84A100D4802B0BDE8F047FEF79DBD00BF04
:20612000082F0020008909000004800020020020380501001CFF000054F800005CF80000B7
:2061400044050100242F00207005010002484FF4B072002109F086B9082F002010B51C4C80
:2061600094F829308BB994F82B30042B0DD1194B1A7B22B1597B94F82D208A4215D0164B77
:206180001B68002B19DC002010BD134B1B68002BF9DD124A12491348FEF75EFD94F82B1064
:2061A0001148FEF759FD002010BDB3F84A3084F82D205BBAE385012010BD084A0849094801
:2061C000FEF74AFD0948FEF71FFF002010BD00BF785D0020082F0020200200201CFF0000CA
:2061E000C4F900005CF80000B8050100EC05010070B5174A0546118816482B2207F042FF91
:2062000004461548FFF768FC08B9002070BD1349002007F0E7F810490646002007F0E2F887
:2062200014B1A278032A06D00028EED0002EECD04369B342E9D1084C0FCC002648F2FE01C3
:2062400029806E80AE80AA60EB60EE80012070BD4A6A0020785D0020905D0020242F00201F
:206260002DE9F04F614B624819888BB02B2207F009FF18B18378032B044607D05D4B1B680D
:20628000022B6BDC00200BB0BDE8F08F467807794379DFF860A190F80390DAF80020013675
:2062A000F600F6B207F00F08A6EB13153F094544183DC7F1100B022A95FBFBF505F10105D8
:2062C0004FEA1313EDB255DCB9F1000F42D0A94562D8A5EB0900464DC0B20BFB00FB631B7F
:2062E0000BF108001033B9F1010F18BFB8460344A3EB0803B3F5A06F0CD9DAF80030002B1F
:20630000C0DD3D4A3D493E48FEF7A6FC3D48FEF77BFEB7E705F1180704EB000B97E80F0088
:2063200008F1180C06AEC8F1100986E80F0055FA8CF059464A4609F0ADF84A4606EB08011B
:20634000584609F0A7F8E378013BE370DAF80030022B32DC01200BB0BDE8F08F264A2A49FD
:206360002748FEF779FC2948FEF74EFE00200BB0BDE8F08F204A244921480593FEF76CFC5E
:20638000059BCDF80080CDE901634A463B4629461F48FEF761FC97E7DAF80030002B7FF7A4
:2063A00071AF154A15491648FEF756FC19482A464946FEF751FC002065E70F4A1249104841
:2063C000FEF74AFC1448FEF747FCDAF80030022BC0DD3846FBF79EFFDAF80030022BB9DD50
:2063E0000A20FEF70BFE01204DE700BF4A6A0020785D0020200200201CFF0000C4F900007E
:206400005CF80000C806010054F8000034060100440601009C060100E40601002DE9F04FA4
:20642000437887B004460D464618B3B9425A40F263439A4211D1524C237B0BB3627BF3788F
:206440009A421DD1B3789A0628D54E4B1B68002B5BDC002007B0BDE8F08F4A4B1B68002BEE
:20646000F7DD494A49494A48FEF7F6FB7378625D61784848FEF7F0FB002007B0BDE8F08FBD
:20648000404B1B68002BE4DD3F4A40494048FEF7E3FBF1784048FEF7DFFBDAE73F4AB5884E
:2064A00017680D204FEAD318FEF76CFB01463846FCF708FA6DBAB4F84A7096F80290ADB2EA
:2064C000AF4294BF002301238246C9F380190593B8F1000F17D0AF428CBF00270127DFF87B
:2064E000A4B0DBF80020022A18DC1FB1B37843F04003B3704B463A462946504607B0BDE82F
:20650000F04FFFF783BD059FE9E71F4A1F492048FEF7A2FB2248FEF777FD9AE71A4A2149A5
:206520001B48FEF799FB2048FEF796FBDBF80020022ADADD1D48FBF7EDFEDBF80020022A4A
:20654000D3DD1B48FEF788FBDBF80020022ACCDD1848FBF7DFFEDBF80030022BC5DDB4F83B
:206560004A3000931449154B059A1548B8F1000F08BF1946CDE901972B46FEF76DFBB4E7C0
:20658000082F0020200200201CFF0000C4F900005CF800000007010040070100D4020020F0
:2065A0005807010054F8000068070100805D002080070100905D0020F4060100FC0601002F
:2065C000880701002DE9F0412A4F2B4E398882B001230DF10702304607F0EEFC002841D044
:2065E0009DF80730062B3DD0044606F1060814E013B9A378632B16D03988A31BC91A20462B
:2066000000230DF1070289B207F0D6FC044648B39DF80730062B804624D0112B22D03A2BBD
:2066200020D02B2BE4D1237888F8003065780135ED00684207F08CFCC0B1398828393046E2
:2066400089B207F0AFFC3A88A31B9A420EDDD21A6119204608F02CFF98F800308DF80730AB
:20666000062BDAD1012002B0BDE8F081002002B0BDE8F0814A6A0020785D00202DE9F04F4F
:20668000AA4F3B7B8DB0EBB1A94C228B48F2FE039A4217D0237EFF2B14D0FEF7C7FE05461E
:2066A000A8B904F1080006F045F920B1A14BE2791B799A4276D0A37923B994F82A30632B0E
:2066C00000F08880012528460DB0BDE8F08F9A4EFFF778FF3368022B00F3B08004F11803FD
:2066E00005939648FFF7F8F958B93368022BE9DD934A94499448FEF7AFFA9448FEF784FC19
:20670000E0E78E49002006F06DFE0746002866D08F49002006F066FE0390002800F03981F8
:206720008649002006F088FE0546002800F03E81D7F81490B9F1000F00F0BA81039B4B4547
:2067400000F0AA81834B06979B69049300234F460F250DF1200A9946049B39465046984792
:20676000DFF818E2AB46D04671465246002312F8010B11F801CF844502D10133102BF6D10E
:206780009D424FDA3368022B37DC7F6909F10103DBB2002F00F09780039ABA4200F09380D1
:2067A0009946D9E7644E3368022B00F3E980DFF8C481B8F80020B2F59F6F59D93368002BCB
:2067C00081DD5F4A64496048FEF746FA6348FEF71BFC78E70DB0BDE8F04FFFF7BFBC336865
:2067E000022B7FF76FAF564A56495748FEF734FA5B48FEF709FC012565E75249504A5248F9
:20680000FEF72AFA5748FEF727FA3368022BBCDD5046FBF77FFD3368022BB6DD0A20FEF7CB
:20682000EDFBB2E7002518F8013B1EF8012F9A4246D10135102DF6D1AB46A3E7404A414964
:206840004148FEF709FA4848FEF706FA3368022B04F1180305937FF744AF1846FBF75AFDB2
:206860003368022B7FF73DAF4048FEF7CDFB38E73F4D283A294605F1080008F019FEB7F871
:206880004A30797B84F82D105BBAE385A37984F82830002240F26343C5F80120A271638591
:2068A000082007F055FBB8F80030283B99B2A5F1280007F077FBA379002B7FF403AFFCE666
:2068C000AB46EDB25EE74A469846CBF11009C5F1180319FB0233DAB213F0070A069FCDF87C
:2068E0001CB0049200F0C880CAF108035FFA83FA049B5344DBB204939B463368022B00F36C
:20690000BD801C4B1A8802EB0B03B3F5A06F59DD3368002B08DD1049094A0B48FEF79CF915
